{
  "_format": "hh-sol-artifact-1",
  "contractName": "HelloWorld",
  "sourceName": "contracts/HelloWorld.sol",
  "abi": [
    {
      "inputs": [],
      "name": "getName",
      "outputs": [
        {
          "internalType": "string",
          "name": "",
          "type": "string"
        }
      ],
      "stateMutability": "view",
      "type": "function"
    },
    {
      "inputs": [
        {
          "internalType": "string",
          "name": "newName",
          "type": "string"
        }
      ],
      "name": "setName",
      "outputs": [],
      "stateMutability": "nonpayable",
      "type": "function"
    }
  ],
  "bytecode": "0x60c0604052600460808190526343656c6f60e01b60a09081526100259160009190610038565b5034801561003257600080fd5b5061010c565b828054610044906100d1565b90600052602060002090601f01602090048101928261006657600085556100ac565b82601f1061007f57805160ff19168380011785556100ac565b828001600101855582156100ac579182015b828111156100ac578251825591602001919060010190610091565b506100b89291506100bc565b5090565b5b808211156100b857600081556001016100bd565b600181811c908216806100e557607f821691505b6020821081141561010657634e487b7160e01b600052602260045260246000fd5b50919050565b6103308061011b6000396000f3fe608060405234801561001057600080fd5b50600436106100365760003560e01c806317d7de7c1461003b578063c47f002714610059575b600080fd5b61004361006e565b6040516100509190610235565b60405180910390f35b61006c6100673660046101c8565b610100565b005b60606000805461007d906102a6565b80601f01602080910402602001604051908101604052809291908181526020018280546100a9906102a6565b80156100f65780601f106100cb576101008083540402835291602001916100f6565b820191906000526020600020905b8154815290600101906020018083116100d957829003601f168201915b5050505050905090565b61010c60008383610111565b505050565b82805461011d906102a6565b90600052602060002090601f01602090048101928261013f57600085556101a3565b82601f10610176578280017fffffffffffffffffffffffffffffffffffffffffffffffffffffffffffffff008235161785556101a3565b828001600101855582156101a3579182015b828111156101a3578235825591602001919060010190610188565b506101af9291506101b3565b5090565b5b808211156101af57600081556001016101b4565b600080602083850312156101da578182fd5b823567ffffffffffffffff808211156101f1578384fd5b818501915085601f830112610204578384fd5b813581811115610212578485fd5b866020828501011115610223578485fd5b60209290920196919550909350505050565b6000602080835283518082850152825b8181101561026157858101830151858201604001528201610245565b818111156102725783604083870101525b50601f017fffffffffffffffffffffffffffffffffffffffffffffffffffffffffffffffe016929092016040019392505050565b600181811c908216806102ba57607f821691505b602082108114156102f4577f4e487b7100000000000000000000000000000000000000000000000000000000600052602260045260246000fd5b5091905056fea2646970667358221220da0d6a1f184d1b187fcef5b554cc18f4060d49bf009309589d7b5509a304299664736f6c63430008040033",
  "linkReferences": {},
  "deployedLinkReferences": {}
}