{
  "_format": "hh-sol-artifact-1",
  "contractName": "SolarisMargin",
  "sourceName": "contracts/SolarisMargin.sol",
  "abi": [
    {
      "inputs": [
        {
          "internalType": "contract ILendingPoolAddressesProvider",
          "name": "_addressProvider",
          "type": "address"
        },
        {
          "internalType": "contract IProtocolDataProvider",
          "name": "_dataProvider",
          "type": "address"
        },
        {
          "internalType": "contract IUniswapV2Router02",
          "name": "_router",
          "type": "address"
        }
      ],
      "stateMutability": "nonpayable",
      "type": "constructor"
    },
    {
      "anonymous": false,
      "inputs": [
        {
          "indexed": false,
          "internalType": "uint8",
          "name": "positionType",
          "type": "uint8"
        }
      ],
      "name": "PositionOpened",
      "type": "event"
    },
    {
      "anonymous": false,
      "inputs": [
        {
          "indexed": false,
          "internalType": "uint8",
          "name": "positionType",
          "type": "uint8"
        }
      ],
      "name": "PositionRepaid",
      "type": "event"
    },
    {
      "inputs": [],
      "name": "ADDRESSES_PROVIDER",
      "outputs": [
        {
          "internalType": "contract ILendingPoolAddressesProvider",
          "name": "",
          "type": "address"
        }
      ],
      "stateMutability": "view",
      "type": "function"
    },
    {
      "inputs": [],
      "name": "LENDING_POOL",
      "outputs": [
        {
          "internalType": "contract ILendingPool",
          "name": "",
          "type": "address"
        }
      ],
      "stateMutability": "view",
      "type": "function"
    },
    {
      "inputs": [],
      "name": "UBESWAP_ROUTER",
      "outputs": [
        {
          "internalType": "contract IUniswapV2Router02",
          "name": "",
          "type": "address"
        }
      ],
      "stateMutability": "view",
      "type": "function"
    },
    {
      "inputs": [
        {
          "internalType": "address[]",
          "name": "assets",
          "type": "address[]"
        },
        {
          "internalType": "uint256[]",
          "name": "amounts",
          "type": "uint256[]"
        },
        {
          "internalType": "uint256[]",
          "name": "premiums",
          "type": "uint256[]"
        },
        {
          "internalType": "address",
          "name": "initiator",
          "type": "address"
        },
        {
          "internalType": "bytes",
          "name": "params",
          "type": "bytes"
        }
      ],
      "name": "executeOperation",
      "outputs": [
        {
          "internalType": "bool",
          "name": "",
          "type": "bool"
        }
      ],
      "stateMutability": "nonpayable",
      "type": "function"
    },
    {
      "inputs": [
        {
          "internalType": "address",
          "name": "_tokenIn",
          "type": "address"
        },
        {
          "internalType": "address",
          "name": "_tokenOut",
          "type": "address"
        },
        {
          "internalType": "uint256",
          "name": "_amountIn",
          "type": "uint256"
        }
      ],
      "name": "getAmountsOut",
      "outputs": [
        {
          "internalType": "uint256",
          "name": "amount",
          "type": "uint256"
        }
      ],
      "stateMutability": "view",
      "type": "function"
    },
    {
      "inputs": [],
      "name": "getName",
      "outputs": [
        {
          "internalType": "string",
          "name": "",
          "type": "string"
        }
      ],
      "stateMutability": "view",
      "type": "function"
    },
    {
      "inputs": [
        {
          "internalType": "address",
          "name": "baseAsset",
          "type": "address"
        },
        {
          "internalType": "address",
          "name": "quoteAsset",
          "type": "address"
        },
        {
          "internalType": "uint256",
          "name": "amount",
          "type": "uint256"
        },
        {
          "internalType": "uint256",
          "name": "minAmount",
          "type": "uint256"
        },
        {
          "internalType": "uint256",
          "name": "leverage",
          "type": "uint256"
        }
      ],
      "name": "openLongPosition",
      "outputs": [],
      "stateMutability": "nonpayable",
      "type": "function"
    },
    {
      "inputs": [
        {
          "internalType": "address",
          "name": "baseAsset",
          "type": "address"
        },
        {
          "internalType": "address",
          "name": "quoteAsset",
          "type": "address"
        },
        {
          "internalType": "uint256",
          "name": "amount",
          "type": "uint256"
        },
        {
          "internalType": "uint256",
          "name": "loanAmount",
          "type": "uint256"
        },
        {
          "internalType": "uint256",
          "name": "minAmount",
          "type": "uint256"
        },
        {
          "internalType": "uint256",
          "name": "leverage",
          "type": "uint256"
        }
      ],
      "name": "openShortPosition",
      "outputs": [],
      "stateMutability": "nonpayable",
      "type": "function"
    },
    {
      "inputs": [
        {
          "internalType": "address",
          "name": "debtAsset",
          "type": "address"
        },
        {
          "internalType": "address",
          "name": "collateralAsset",
          "type": "address"
        },
        {
          "internalType": "address",
          "name": "aCollateralAsset",
          "type": "address"
        },
        {
          "internalType": "uint256",
          "name": "debtAmount",
          "type": "uint256"
        },
        {
          "internalType": "uint256",
          "name": "collateralAmount",
          "type": "uint256"
        },
        {
          "internalType": "uint256",
          "name": "minAmount",
          "type": "uint256"
        }
      ],
      "name": "repay",
      "outputs": [],
      "stateMutability": "nonpayable",
      "type": "function"
    },
    {
      "inputs": [
        {
          "internalType": "address",
          "name": "_tokenIn",
          "type": "address"
        },
        {
          "internalType": "address",
          "name": "_tokenOut",
          "type": "address"
        },
        {
          "internalType": "uint256",
          "name": "_amountIn",
          "type": "uint256"
        },
        {
          "internalType": "uint256",
          "name": "_amountOutMin",
          "type": "uint256"
        },
        {
          "internalType": "address",
          "name": "_to",
          "type": "address"
        }
      ],
      "name": "swap",
      "outputs": [],
      "stateMutability": "nonpayable",
      "type": "function"
    }
  ],
  "bytecode": "0x610140604052600e6101008190526d29b7b630b934b99026b0b933b4b760911b61012090815262000034916000919062000126565b503480156200004257600080fd5b506040516200274c3803806200274c8339810160408190526200006591620001f2565b8083806001600160a01b03166080816001600160a01b031660601b81525050806001600160a01b0316630261bf8b6040518163ffffffff1660e01b815260040160206040518083038186803b158015620000be57600080fd5b505afa158015620000d3573d6000803e3d6000fd5b505050506040513d601f19601f82011682018060405250810190620000f99190620001cc565b6001600160601b0319606091821b811660a05292811b831660c0529390931b1660e052506200029b915050565b828054620001349062000245565b90600052602060002090601f016020900481019282620001585760008555620001a3565b82601f106200017357805160ff1916838001178555620001a3565b82800160010185558215620001a3579182015b82811115620001a357825182559160200191906001019062000186565b50620001b1929150620001b5565b5090565b5b80821115620001b15760008155600101620001b6565b600060208284031215620001de578081fd5b8151620001eb8162000282565b9392505050565b60008060006060848603121562000207578182fd5b8351620002148162000282565b6020850151909350620002278162000282565b60408501519092506200023a8162000282565b809150509250925092565b600181811c908216806200025a57607f821691505b602082108114156200027c57634e487b7160e01b600052602260045260246000fd5b50919050565b6001600160a01b03811681146200029857600080fd5b50565b60805160601c60a05160601c60c05160601c60e05160601c6124066200034660003960005050600081816101210152818161035901528181610bbd01528181610d0b01528181611a400152611b920152600081816101a10152818161076401528181610a3601528181610f23015281816111fa0152818161130b015281816113d90152818161152801528181611609015281816116fb015261185f0152600060c801526124066000f3fe608060405234801561001057600080fd5b50600436106100be5760003560e01c8063ac1a90a011610076578063d5bcb9b51161005b578063d5bcb9b5146101c3578063ee2733b4146101d6578063f75debd8146101e957600080fd5b8063ac1a90a014610187578063b4dcfc771461019c57600080fd5b806338964484116100a7578063389644841461011c57806345608d0014610143578063920f5c841461016457600080fd5b80630542975c146100c357806317d7de7c14610107575b600080fd5b6100ea7f000000000000000000000000000000000000000000000000000000000000000081565b6040516001600160a01b0390911681526020015b60405180910390f35b61010f6101fc565b6040516100fe919061223c565b6100ea7f000000000000000000000000000000000000000000000000000000000000000081565b610156610151366004611cfc565b61028e565b6040519081526020016100fe565b610177610172366004611e42565b61041a565b60405190151581526020016100fe565b61019a610195366004611dea565b610818565b005b6100ea7f000000000000000000000000000000000000000000000000000000000000000081565b61019a6101d1366004611d3c565b610aed565b61019a6101e4366004611c98565b610da9565b61019a6101f7366004611d9a565b610fc8565b60606000805461020b90612318565b80601f016020809104026020016040519081016040528092919081815260200182805461023790612318565b80156102845780601f1061025957610100808354040283529160200191610284565b820191906000526020600020905b81548152906001019060200180831161026757829003601f168201915b5050505050905090565b604080516002808252606080830184526000939092919060208301908036833701905050905084816000815181106102d657634e487b7160e01b600052603260045260246000fd5b60200260200101906001600160a01b031690816001600160a01b031681525050838160018151811061031857634e487b7160e01b600052603260045260246000fd5b6001600160a01b0392831660209182029290920101526040517fd06ca61f0000000000000000000000000000000000000000000000000000000081526000917f0000000000000000000000000000000000000000000000000000000000000000169063d06ca61f90610390908790869060040161224f565b60006040518083038186803b1580156103a857600080fd5b505afa1580156103bc573d6000803e3d6000fd5b505050506040513d6000823e601f3d908101601f191682016040526103e49190810190611f3f565b90508060018151811061040757634e487b7160e01b600052603260045260246000fd5b6020026020010151925050509392505050565b6000806104298385018561201f565b9050806104f5576104f58b8b600081811061045457634e487b7160e01b600052603260045260246000fd5b90506020020160208101906104699190611c7c565b8a8a600081811061048a57634e487b7160e01b600052603260045260246000fd5b90506020020135898960008181106104b257634e487b7160e01b600052603260045260246000fd5b9050602002013587878080601f0160208091040260200160405190810160405280939291908181526020018383808284376000920191909152506112af92505050565b80600114156105c3576105c38b8b600081811061052257634e487b7160e01b600052603260045260246000fd5b90506020020160208101906105379190611c7c565b8a8a600081811061055857634e487b7160e01b600052603260045260246000fd5b905060200201358989600081811061058057634e487b7160e01b600052603260045260246000fd5b9050602002013587878080601f01602080910402602001604051908101604052809392919081815260200183838082843760009201919091525061159392505050565b8060021415610691576106918b8b60008181106105f057634e487b7160e01b600052603260045260246000fd5b90506020020160208101906106059190611c7c565b8a8a600081811061062657634e487b7160e01b600052603260045260246000fd5b905060200201358989600081811061064e57634e487b7160e01b600052603260045260246000fd5b9050602002013587878080601f0160208091040260200160405190810160405280939291908181526020018383808284376000920191909152506115d192505050565b60005b8a8110156108065760006106fd8989848181106106c157634e487b7160e01b600052603260045260246000fd5b905060200201358c8c858181106106e857634e487b7160e01b600052603260045260246000fd5b905060200201356119e590919063ffffffff16565b90508c8c8381811061071f57634e487b7160e01b600052603260045260246000fd5b90506020020160208101906107349190611c7c565b6040517f095ea7b30000000000000000000000000000000000000000000000000000000081526001600160a01b037f00000000000000000000000000000000000000000000000000000000000000008116600483015260248201849052919091169063095ea7b390604401602060405180830381600087803b1580156107b957600080fd5b505af11580156107cd573d6000803e3d6000fd5b505050506040513d601f19601f820116820180604052508101906107f19190611fff565b505080806107fe90612353565b915050610694565b5060019b9a5050505050505050505050565b6040517f23b872dd000000000000000000000000000000000000000000000000000000008152336004820152306024820152604481018590526001600160a01b038716906323b872dd90606401602060405180830381600087803b15801561087f57600080fd5b505af1158015610893573d6000803e3d6000fd5b505050506040513d601f19601f820116820180604052508101906108b79190611fff565b506040805160018082528183019092526000916020808301908036833701905050905085816000815181106108fc57634e487b7160e01b600052603260045260246000fd5b6001600160a01b039290921660209283029190910190910152604080516001808252818301909252600091816020016020820280368337019050509050848160008151811061095b57634e487b7160e01b600052603260045260246000fd5b60209081029190910101526040805160018082528183019092526000918160200160208202803683370190505090506000816000815181106109ad57634e487b7160e01b600052603260045260246000fd5b60209081029190910181019190915260408051600192810192909252339082015260608101889052608081018690526001600160a01b038a1660a0820152309060009060c00160408051601f19818403018152908290527fab9c4b5d00000000000000000000000000000000000000000000000000000000825291506000906001600160a01b037f0000000000000000000000000000000000000000000000000000000000000000169063ab9c4b5d90610a779030908a908a908a908a908a908a906004016121bd565b600060405180830381600087803b158015610a9157600080fd5b505af1158015610aa5573d6000803e3d6000fd5b5050604051600281527f75184ae7397a9f6b11c2263699f00bd9b7421f2d18732db76a580e50164ec00a925060200190505b60405180910390a1505050505050505050505050565b6040517f23b872dd000000000000000000000000000000000000000000000000000000008152336004820152306024820152604481018490526001600160a01b038616906323b872dd90606401602060405180830381600087803b158015610b5457600080fd5b505af1158015610b68573d6000803e3d6000fd5b505050506040513d601f19601f82011682018060405250810190610b8c9190611fff565b506040517f095ea7b30000000000000000000000000000000000000000000000000000000081526001600160a01b037f0000000000000000000000000000000000000000000000000000000000000000811660048301526024820185905286169063095ea7b390604401602060405180830381600087803b158015610c1057600080fd5b505af1158015610c24573d6000803e3d6000fd5b505050506040513d601f19601f82011682018060405250810190610c489190611fff565b5060408051600280825260608083018452926020830190803683370190505090508581600081518110610c8b57634e487b7160e01b600052603260045260246000fd5b60200260200101906001600160a01b031690816001600160a01b0316815250508481600181518110610ccd57634e487b7160e01b600052603260045260246000fd5b6001600160a01b0392831660209182029290920101526040517f38ed17390000000000000000000000000000000000000000000000000000000081527f0000000000000000000000000000000000000000000000000000000000000000909116906338ed173990610d4a9087908790869088904290600401612270565b600060405180830381600087803b158015610d6457600080fd5b505af1158015610d78573d6000803e3d6000fd5b505050506040513d6000823e601f3d908101601f19168201604052610da09190810190611f3f565b50505050505050565b604080516001808252818301909252600091602080830190803683370190505090508681600081518110610ded57634e487b7160e01b600052603260045260246000fd5b6001600160a01b0392909216602092830291909101909101526040805160018082528183019092526000918160200160208202803683370190505090508481600081518110610e4c57634e487b7160e01b600052603260045260246000fd5b6020908102919091010152604080516001808252818301909252600091816020016020820280368337019050509050600081600081518110610e9e57634e487b7160e01b600052603260045260246000fd5b6020908102919091018101919091526040805160029281019290925233828201526001600160a01b038a81166060840152898116608084015260a0830188905260c08084018890528251808503909101815260e08401928390527fab9c4b5d0000000000000000000000000000000000000000000000000000000090925230926000917f0000000000000000000000000000000000000000000000000000000000000000169063ab9c4b5d90610f649086908a908a908a9084908a908a9060e4016121bd565b600060405180830381600087803b158015610f7e57600080fd5b505af1158015610f92573d6000803e3d6000fd5b5050604051600081527fa0bf1076b5a829dffe64bb10678cd7e57f8e0c3193a96955cbebe8d40809cd2092506020019050610ad7565b6040517f23b872dd000000000000000000000000000000000000000000000000000000008152336004820152306024820152604481018490526001600160a01b038616906323b872dd90606401602060405180830381600087803b15801561102f57600080fd5b505af1158015611043573d6000803e3d6000fd5b505050506040513d601f19601f820116820180604052508101906110679190611fff565b506040805160018082528183019092526000916020808301908036833701905050905085816000815181106110ac57634e487b7160e01b600052603260045260246000fd5b6001600160a01b0392909216602092830291909101909101526040805160018082528183019092526000918160200160208202803683370190505090506110fe6110f78460016119f8565b8690611a04565b8160008151811061111f57634e487b7160e01b600052603260045260246000fd5b602090810291909101015260408051600180825281830190925260009181602001602082028036833701905050905060008160008151811061117157634e487b7160e01b600052603260045260246000fd5b602090810291909101810191909152604080516000928101839052339181019190915260608101889052608081018790526001600160a01b03891660a082015230919060c00160408051601f19818403018152908290527fab9c4b5d00000000000000000000000000000000000000000000000000000000825291506000906001600160a01b037f0000000000000000000000000000000000000000000000000000000000000000169063ab9c4b5d9061123b9030908a908a908a908a908a908a906004016121bd565b600060405180830381600087803b15801561125557600080fd5b505af1158015611269573d6000803e3d6000fd5b5050604051600081527f75184ae7397a9f6b11c2263699f00bd9b7421f2d18732db76a580e50164ec00a9250602001905060405180910390a15050505050505050505050565b600080600080848060200190518101906112c991906120b7565b94509450945094505060006112e788856119e590919063ffffffff16565b905060006112f88a84848730611a10565b9050826001600160a01b031663095ea7b37f00000000000000000000000000000000000000000000000000000000000000008360018151811061134b57634e487b7160e01b600052603260045260246000fd5b60200260200101516040518363ffffffff1660e01b81526004016113849291906001600160a01b03929092168252602082015260400190565b602060405180830381600087803b15801561139e57600080fd5b505af11580156113b2573d6000803e3d6000fd5b505050506040513d601f19601f820116820180604052508101906113d69190611fff565b507f00000000000000000000000000000000000000000000000000000000000000006001600160a01b031663e8eda9df848360018151811061142857634e487b7160e01b600052603260045260246000fd5b60209081029190910101516040517fffffffff0000000000000000000000000000000000000000000000000000000060e085901b1681526001600160a01b0392831660048201526024810191909152908916604482015260006064820152608401600060405180830381600087803b1580156114a357600080fd5b505af11580156114b7573d6000803e3d6000fd5b5050505060006114d0898b6119e590919063ffffffff16565b6040517fa415bcad0000000000000000000000000000000000000000000000000000000081526001600160a01b038d8116600483015260248201839052600160448301526000606483015289811660848301529192507f00000000000000000000000000000000000000000000000000000000000000009091169063a415bcad9060a401600060405180830381600087803b15801561156e57600080fd5b505af1158015611582573d6000803e3d6000fd5b505050505050505050505050505050565b600080600080848060200190518101906115ad91906120b7565b94509450945094505060006115c589838a8630611a10565b50505050505050505050565b6000806000806000858060200190518101906115ed919061204f565b9550955095509550955050886001600160a01b031663095ea7b37f00000000000000000000000000000000000000000000000000000000000000008a6040518363ffffffff1660e01b815260040161165a9291906001600160a01b03929092168252602082015260400190565b602060405180830381600087803b15801561167457600080fd5b505af1158015611688573d6000803e3d6000fd5b505050506040513d601f19601f820116820180604052508101906116ac9190611fff565b506040517f573ade810000000000000000000000000000000000000000000000000000000081526001600160a01b038a81166004830152602482018a90526001604483015286811660648301527f0000000000000000000000000000000000000000000000000000000000000000169063573ade8190608401602060405180830381600087803b15801561173f57600080fd5b505af1158015611753573d6000803e3d6000fd5b505050506040513d601f19601f820116820180604052508101906117779190612037565b506040517f23b872dd0000000000000000000000000000000000000000000000000000000081526001600160a01b038681166004830152306024830152604482018490528416906323b872dd90606401602060405180830381600087803b1580156117e157600080fd5b505af11580156117f5573d6000803e3d6000fd5b505050506040513d601f19601f820116820180604052508101906118199190611fff565b506040517f69328dec0000000000000000000000000000000000000000000000000000000081526001600160a01b038581166004830152602482018490523060448301527f000000000000000000000000000000000000000000000000000000000000000016906369328dec90606401602060405180830381600087803b1580156118a357600080fd5b505af11580156118b7573d6000803e3d6000fd5b505050506040513d601f19601f820116820180604052508101906118db9190612037565b5060006118eb858b858530611a10565b905060006119336118fc8b8b6119e5565b8360018151811061191d57634e487b7160e01b600052603260045260246000fd5b60200260200101516119f890919063ffffffff16565b905080156119d8576040517fa9059cbb0000000000000000000000000000000000000000000000000000000081526001600160a01b038881166004830152602482018390528c169063a9059cbb90604401602060405180830381600087803b15801561199e57600080fd5b505af11580156119b2573d6000803e3d6000fd5b505050506040513d601f19601f820116820180604052508101906119d69190611fff565b505b5050505050505050505050565b60006119f182846122ac565b9392505050565b60006119f18284612301565b60006119f182846122c4565b6040517f095ea7b30000000000000000000000000000000000000000000000000000000081526001600160a01b037f000000000000000000000000000000000000000000000000000000000000000081166004830152602482018590526060919087169063095ea7b390604401602060405180830381600087803b158015611a9757600080fd5b505af1158015611aab573d6000803e3d6000fd5b505050506040513d601f19601f82011682018060405250810190611acf9190611fff565b5060408051600280825260608083018452926020830190803683370190505090508681600081518110611b1257634e487b7160e01b600052603260045260246000fd5b60200260200101906001600160a01b031690816001600160a01b0316815250508581600181518110611b5457634e487b7160e01b600052603260045260246000fd5b6001600160a01b0392831660209182029290920101526040517f38ed17390000000000000000000000000000000000000000000000000000000081527f0000000000000000000000000000000000000000000000000000000000000000909116906338ed173990611bd19088908890869089904290600401612270565b600060405180830381600087803b158015611beb57600080fd5b505af1158015611bff573d6000803e3d6000fd5b505050506040513d6000823e601f3d908101601f19168201604052611c279190810190611f3f565b979650505050505050565b60008083601f840112611c43578081fd5b50813567ffffffffffffffff811115611c5a578182fd5b6020830191508360208260051b8501011115611c7557600080fd5b9250929050565b600060208284031215611c8d578081fd5b81356119f1816123b8565b60008060008060008060c08789031215611cb0578182fd5b8635611cbb816123b8565b95506020870135611ccb816123b8565b94506040870135611cdb816123b8565b959894975094956060810135955060808101359460a0909101359350915050565b600080600060608486031215611d10578283fd5b8335611d1b816123b8565b92506020840135611d2b816123b8565b929592945050506040919091013590565b600080600080600060a08688031215611d53578081fd5b8535611d5e816123b8565b94506020860135611d6e816123b8565b935060408601359250606086013591506080860135611d8c816123b8565b809150509295509295909350565b600080600080600060a08688031215611db1578081fd5b8535611dbc816123b8565b94506020860135611dcc816123b8565b94979496505050506040830135926060810135926080909101359150565b60008060008060008060c08789031215611e02578182fd5b8635611e0d816123b8565b95506020870135611e1d816123b8565b95989597505050506040840135936060810135936080820135935060a0909101359150565b600080600080600080600080600060a08a8c031215611e5f578283fd5b893567ffffffffffffffff80821115611e76578485fd5b611e828d838e01611c32565b909b50995060208c0135915080821115611e9a578485fd5b611ea68d838e01611c32565b909950975060408c0135915080821115611ebe578485fd5b611eca8d838e01611c32565b909750955060608c01359150611edf826123b8565b90935060808b01359080821115611ef4578384fd5b818c0191508c601f830112611f07578384fd5b813581811115611f15578485fd5b8d6020828501011115611f26578485fd5b6020830194508093505050509295985092959850929598565b60006020808385031215611f51578182fd5b825167ffffffffffffffff80821115611f68578384fd5b818501915085601f830112611f7b578384fd5b815181811115611f8d57611f8d6123a2565b8060051b604051601f19603f83011681018181108582111715611fb257611fb26123a2565b604052828152858101935084860182860187018a1015611fd0578788fd5b8795505b83861015611ff2578051855260019590950194938601938601611fd4565b5098975050505050505050565b600060208284031215612010578081fd5b815180151581146119f1578182fd5b600060208284031215612030578081fd5b5035919050565b600060208284031215612048578081fd5b5051919050565b60008060008060008060c08789031215612067578384fd5b865195506020870151612079816123b8565b604088015190955061208a816123b8565b606088015190945061209b816123b8565b809350506080870151915060a087015190509295509295509295565b600080600080600060a086880312156120ce578283fd5b8551945060208601516120e0816123b8565b8094505060408601519250606086015191506080860151611d8c816123b8565b6000815180845260208085019450808401835b838110156121385781516001600160a01b031687529582019590820190600101612113565b509495945050505050565b6000815180845260208085019450808401835b8381101561213857815187529582019590820190600101612156565b60008151808452815b818110156121975760208185018101518683018201520161217b565b818111156121a85782602083870101525b50601f01601f19169290920160200192915050565b60006001600160a01b03808a16835260e060208401526121e060e084018a612100565b83810360408501526121f2818a612143565b905083810360608501526122068189612143565b9050818716608085015283810360a08501526122228187612172565b9250505061ffff831660c083015298975050505050505050565b6020815260006119f16020830184612172565b8281526040602082015260006122686040830184612100565b949350505050565b85815284602082015260a06040820152600061228f60a0830186612100565b6001600160a01b0394909416606083015250608001529392505050565b600082198211156122bf576122bf61238c565b500190565b6000817fffffffffffffffffffffffffffffffffffffffffffffffffffffffffffffffff04831182151516156122fc576122fc61238c565b500290565b6000828210156123135761231361238c565b500390565b600181811c9082168061232c57607f821691505b6020821081141561234d57634e487b7160e01b600052602260045260246000fd5b50919050565b60007fffffffffffffffffffffffffffffffffffffffffffffffffffffffffffffffff8214156123855761238561238c565b5060010190565b634e487b7160e01b600052601160045260246000fd5b634e487b7160e01b600052604160045260246000fd5b6001600160a01b03811681146123cd57600080fd5b5056fea26469706673582212206bee0a1979a8f475cbd92309414c4123ceeeff90d7642a8434588dac21c54ca664736f6c63430008040033",
  "linkReferences": {},
  "deployedLinkReferences": {}
}